:100000000C942A000C943C000C943C000C943C0092
:100010000C943C000C943C000C943C000C943C0070
:100020000C943C000C943C000C943C000C943C0060
:100030000C943C000C943C000C943C000C943C0050
:100040000C943C000C943C000C943C000C943C0040
:100050000C943C0011241FBECFE5D4E0DEBFCDBF21
:1000600020E0A0E6B0E001C01D92A136B207E1F7A2
:100070000E943E000C9453000C9400008FEF84BB50
:1000800015BA88E18AB986E880BD87E689B95F9BA1
:10009000FECF8CB18093600085BB5D9BFECF8091CD
:0A00A00060008CB9F4CFF894FFCF94
:00000001FF
